:10000000304600209D0B000009330000150B000056
:10001000150B0000150B0000150B0000150B000060
:10002000150B0000150B0000150B00000D0A000059
:10003000150B0000150B0000B9090000F532000097
:100040005D0B00005D0B00005D0B00005D0B000010
:100050005D0B00005D0B00005D0B00005D0B000000
:100060005D0B00005D0B00005D0B00005D0B0000F0
:100070005D0B00005D0B00005D0B00005D0B0000E0
:100080005D0B00005D0B00005D0B00005D0B0000D0
:100090005D0B00005D0B00005D0B00005D0B0000C0
:1000A0005D0B00005D0B00005D0B00005D0B0000B0
:1000B0005D0B00005D0B00005D0B00005D0B0000A0
:1000C0005D0B00005D0B00005D0B00005D0B000090
:0C00D0005D0B00005D0B00005D0B0000EC
:1000DC0053B94AB9002908BF00281CBF4FF0FF31A3
:1000EC004FF0FF3000F06CB9ADF1080C6DE904CEA7
:1000FC0000F006F8DDF804E0DDE9022304B07047F7
:10010C002DE9F047089E0D4604468E46002B40F024
:10011C0082808A42174646D9B2FA82F24AB1C2F1BB
:10012C00200105FA02F320FA01F1974041EA030E8F
:10013C0094404FEA1748230CBEFBF8FCB9B208FBFD
:10014C001CEE43EA0E430CFB01F098420AD9FB1853
:10015C000CF1FF3580F01681984240F21381ACF11E
:10016C00020C3B441B1AA4B2B3FBF8F008FB10338F
:10017C0044EA034400FB01F1A14209D93C1900F106
:10018C00FF3380F00181A14240F2FE8002383C44F2
:10019C00641A40EA0C4000211EB1D4400023C6E989
:1001AC000043BDE8F08702B9FFDEB2FA82F2002A02
:1001BC004FD1CB1B4FEA174E1FFA87F80121B3FB27
:1001CC00FEFC250C0EFB1C3345EA034508FB0CF327
:1001DC00AB4207D97D190CF1FF3002D2AB4200F2D1
:1001EC00E7808446ED1AA3B2B5FBFEF00EFB10556A
:1001FC0043EA054408FB00F8A04507D93C1900F177
:10020C00FF3302D2A04500F2D7801846A4EB0804B5
:10021C0040EA0C40C0E78B4208D9002E00F0AF80BA
:10022C000021C6E900050846BDE8F087B3FA83F162
:10023C0000294BD1AB4202D3824200F2B780841A20
:10024C0065EB030301209E46002EAAD0C6E9004EA2
:10025C00A7E7C2F1200C01FA02F3974020FA0CF048
:10026C004FEA174E21FA0CFC1843BCFBFEF1050CAF
:10027C000EFB11CC1FFA87F845EA0C4501FB08F37D
:10028C00AB4204FA02F409D97D1901F1FF3C80F06C
:10029C008B80AB4240F2888002393D44EB1A85B228
:1002AC00B3FBFEF00EFB103345EA034500FB08F3ED
:1002BC00AB4207D97D1900F1FF3C71D2AB426FD92B
:1002CC0002383D44EB1A40EA014178E7C1F1200CB9
:1002DC008B4022FA0CF71F4320FA0CF405FA01F3B9
:1002EC004FEA174E25FA0CF51C43230CB5FBFEF90F
:1002FC001FFA87F80EFB195543EA054509FB08FA66
:10030C00AA4502FA01F200FA01F308D97D1909F1A4
:10031C00FF3047D2AA4545D9A9F102093D44A5EBC6
:10032C000A05A4B2B5FBFEF00EFB105544EA0544D9
:10033C0000FB08F8A04507D93C1900F1FF352DD278
:10034C00A0452BD902383C4440EA0940A4EB0804F0
:10035C00A0FB02894C45C6464D4619D316D05EB15A
:10036C00B3EB0E0264EB050404FA0CFCCA404CEA35
:10037C000202CC40C6E900240021BDE8F0873146DA
:10038C0030460EE7AC46EDE6184601E74345E6D2AB
:10039C00B8EB020E69EB07050138E0E72846D3E716
:1003AC0060468FE78146BAE7614677E708464BE738
:1003BC00ACF1020C3D4415E702383C4426E700BF83
:1003CC00704700BF2DE9F0438BB0544801F00AFE92
:1003DC000446436816221D6800210123A847636860
:1003EC005D680023162219462046A8474C4801F0A8
:1003FC00F9FD0446002800F08E80436806A9DB69ED
:10040C0098474FF4E150BDF81890BDF81A6001F010
:10041C0049FF054600287ED04FF4E152002102F03E
:10042C00B3FFBDF81830ADF814304FF4E1524FF46F
:10043C0061680392B8FBF3F8ADF81030ADF8128098
:10044C000027BDF81A30BB4233DC636820465B687A
:10045C0098474FF03C13049300273C233C3EADF8E7
:10046C001430B846B6B217F0030243D0012A49D073
:10047C00022A4CD008F01F018B0143EAC1230B4325
:10048C0008F101084FEA132C0021681C05F811C073
:10049C0000F811300131B1F5616FF7D1022A1FD08C
:1004AC00032A23D0012A0DD0009503AB0022002192
:1004BC000EE0BAB2009503AB0021204602F006FC18
:1004CC004744BEE7A9F13C01009503AB002289B279
:1004DC00204602F0FBFB0137642002F0E1F9C2E791
:1004EC00A9F13C01009503AB3246F0E7009503AB54
:1004FC003246DCE711464FF4784310460B44034474
:10050C009BB2BFE700234FF4FC611846F6E70021CD
:10051C000B461F20F2E70BB0BDE8F083403E000015
:10052C00473E0000164B07B51A6882B14FF0804267
:10053C00D2F80423D1070AD500221A601B6811488F
:10054C000093009B8368597A09B902F004FD0E4BA5
:10055C001A688AB14FF08042D2F8042392070BD567
:10056C0000221A601B680193019B0648012103B00D
:10057C005DF804EB02F0EFBC03B05DF804FB00BFC8
:10058C000001004070500020040100402DE9F341AF
:10059C00846806467E4801F025FD206028B94FF09E
:1005AC00FF35284602B0BDE8F0817A4A4FF48073DB
:1005BC00C4E90123784801F015FD1927002504F141
:1005CC001003C4E905752061E360734801F00AFD6E
:1005DC00E0610028E3D043682946D3F800801A2252
:1005EC000123C047054610B16FF00405D9E76A48EE
:1005FC0001F0F8FC20620028D1D043682946D3F8DA
:10060C00008012220123C04705460028ECD10122AC
:10061C001A21E06902F0B4FD012002F09FFD2A4688
:10062C001A21E06902F0ACFD062002F097FD0122D0
:10063C001A21E06902F0A4FD142002F08FFD30466F
:10064C0002F0DBFD2046554AA5620523B22102F0DB
:10065C00A3FD2046524A0423DF2102F09DFD0DF13B
:10066C00070220460123BA218DF8075002F094FDB1
:10067C000F238DF807300DF1070220460123C62108
:10068C0002F08AFD35238DF807300DF10702204664
:10069C000123B721012602F07FFD0DF10702204650
:1006AC000123BB218DF8077002F076FD33460DF166
:1006BC0007022046C2218DF8076002F06DFD12235F
:1006CC008DF807300DF1070233462046C32102F0A6
:1006DC0063FD20238DF807300DF1070233462046C9
:1006EC00C42102F059FD20462E4A0223D02102F0EB
:1006FC0053FD33460DF10702204636218DF8075085
:10070C0002F04AFD05238DF807300DF10702334640
:10071C0020463A2102F040FD2C238DF807300DF1D4
:10072C00070233462046C02102F036FD33460DF158
:10073C000702204626218DF8076002F02DFD2B467E
:10074C002A462046212102F027FD2046164A0E2378
:10075C00E02102F021FD2046144A0E23E12102F093
:10076C001BFD2046124A0223B02102F015FD204643
:10077C00104A0323B12102F00FFD20462B462A46D6
:10078C00112102F009FD782002F0E8FC09E700BF16
:10079C00553E000000127A00403E0000325000200E
:1007AC0020500020455000203750002024500020BD
:1007BC0047500020495000200D4B0022C3F8402127
:1007CC004FF02002EFF3118182F31188BFF36F8F8A
:1007DC00084AD3F804051368C01A20F07F4003447C
:1007EC00136081F31188BFF36F8F02F001BA00BF61
:1007FC00001001402000002073B51C4801F0F2FBF2
:10080C0080B343681A4D1B680121984701260024C8
:10081C004FF48033C5F80845C5F84065C5F8043376
:10082C0003F1804303F58A534FF400321C601B68BC
:10083C000193019B0F4B3146C3F8802111202246B6
:10084C0000F0FEF8112000F0EBF80B4B1E602E6050
:10085C00D5F80435334423F07F43C5F840352046A2
:10086C0002B070BD4FF0FF30FAE700BF4F3E000002
:10087C000010014000E100E008100140254BF0B5EC
:10088C00B0F1FF3F08BF18464FF02002EFF311857F
:10089C0082F31188BFF36F8F1F49204AD1F80445AA
:1008AC001268A71A27F07F463F0219D4013820EAB4
:1008BC00E0709842A8BF184601363044984294BF65
:1008CC001318D3181C1B24F07F4423F07F42022CF6
:1008DC00C1F8402506D985F31188BFF36F8FF0BDA1
:1008EC000020E9E7D1F804250D489A1A22F07F423E
:1008FC00541E844205D90B4B4FF40032C3F800212F
:10090C00E9E7012A02BF023323F07F43C1F84035E7
:10091C00E1E700BFFEFFFF000010014020000020B7
:10092C00FEFF7F0000E100E04FF02002EFF31183A7
:10093C0082F31188BFF36F8F064AD2F80405064A7A
:10094C001268801A20F07F4083F31188BFF36F8FF9
:10095C00704700BF0010014020000020044881684F
:10096C00406A884203D003494FF080520A607047B6
:10097C00E841002004ED00E0094A0A49936809683F
:10098C009966094958664B6843F080534B600023C5
:10099C0083F31188BFF36F8F9368986E704700BF15
:1009AC00E84100203C3E000000ED00E012498A685E
:1009BC004FF028001044EFF3098C80E8F01F202042
:1009CC0080F31188BFF36F8F0C4F4FF000664A6AAB
:1009DC008A603E60506E0023536680F3118804B524
:1009EC00104602F092FCBDE8044002F1280090E8A9
:1009FC00F01F8CF309887047E841002004ED00E0FB
:100A0C001EF0040F0CBFEFF30880EFF3098081692F
:100A1C0011F8021C0229FFD001B502F06BFC01BDDC
:100A2C0043B2002B08DB012200F01F0002FA00F099
:100A3C005B09024A42F82300704700BF00E100E066
:100A4C0043B2002BA8BF03F1604301F10101B8BF11
:100A5C00064B4FEA4111ACBF03F5614300F00F00A8
:100A6C00C9B2B4BF195483F80013704714ED00E0F9
:100A7C0073B51E460A9B00938C18099B054603F020
:100A8C001AF8A4F120020A4B22F0070223F001030A
:100A9C009361069B5360079B9360089BD3604FF058
:100AAC008073D36100231660AA646B6602B070BDBC
:100ABC00312F0000F8B505460C4617461E4600F0CF
:100ACC0079F90A4B3C4428469D6024F0070402F057
:100ADC001CFC304684F30988002163B681F311882D
:100AEC00BFF36F8F0022002302F01CFAE8410020B4
:100AFC00014910220A60704710ED00E0404080F37D
:100B0C00118830BF704700BFEFF30880EFF3098105
:100B1C00724601B500F0A0F801BD00BF30BFFFF771
:100B2C00FDBF00BF08B5084B084A23F07F03936054
:100B3C00BFF34F8FBFF36F8F01F094FA01F09CFA63
:100B4C0000F006F901F0CAFA0000000000ED00E028
:100B5C0001B572B60B4A106A00281EBF0021116243
:100B6C0002F000FF62B6EFF30580A0F110004FEA2F
:100B7C00C0000549014409C99847BDE80140034933
:100B8C0008470000E8410020903B00006909000084
:100B9C0002F01DFC202080F3118808484FF40061FE
:100BAC00401880F30988EFF314800221084380F386
:100BBC001488BFF36F8FFFF7B5FF0000704700205C
:100BCC000C4B9A6A9A6A9A6A920708D55A6B9A6A77
:100BDC00120604D518B19A6A22F080029A62054B6B
:100BEC009A6A9A6A9A6A9A6A002042F0FF029A629A
:100BFC000870704700ED00E00D4B9A6A9A6A9A6A89
:100C0C00920508D59A6B9A6A120404D518B19A6A9F
:100C1C0022F400429A62064B9A6A9A6AD20558BF2D
:100C2C009A6A9A6A002042F47F429A62087070476E
:100C3C0000ED00E0074B9A6A9A6A9A6A9A6A9A6A75
:100C4C009A6A9A6A6FEA02426FEA12429A6200202A
:100C5C00704700BF00ED00E070B5364B5B688AB0A2
:100C6C000E46C3F30803002585F31188BFF36F8F7D
:100C7C0002F07F41B1F17F4F11D102F00C01082934
:100C8C000DD0110701D4064601250022033B8DF837
:100C9C000720032B47D8DFE803F0043E423B2E46E7
:100CAC00F3E7244BDA6A92073DD4DC6A14F08044F3
:100CBC0008D028331B78EBB10DF107010120FFF7A9
:100CCC007FFF04469DF8073093B92022314602A8D5
:100CDC0002F02FFB099B45B3C3F3080222B96FEA5C
:100CEC0053236FEA4323099302A9204602F000FB29
:100CFC000AB070BD104B1B782BB10DF10701012010
:100D0C00FFF77AFFDDE70D4B188884B2002CD9D0A1
:100D1C00FFF790FFD5E70DF107010020CFE70DF1AC
:100D2C0007010020ECE70024CCE723F4FF7323F049
:100D3C000103D8E700ED00E029ED00E02AED00E02A
:100D4C00024A536943F010035361704700ED00E011
:100D5C00044800232021C2180133272B82F80013EA
:100D6C00F9D1704700E100E038B504464FF020039C
:100D7C00EFF3118583F31188BFF36F8F01F024FC1F
:100D8C000A4B9B68A3420BD1094B5A68C2F3080269
:100D9C0012B92846FFF7F0FD5A6842F080525A60AB
:100DAC002846BDE8384002F007BE00BFE8410020ED
:100DBC0000ED00E01FB5084B0193084B0293084B64
:100DCC00039301AB0093074A074B0121684600F0DF
:100DDC0093F805B05DF804FB000000200000000053
:100DEC0000000B060000002000000120DFF884C08A
:100DFC00F0B50646002710468F4200DBF0BD56F8D2
:100E0C0027E0DEF8044094B343B1651E2C4219D19F
:100E1C001F2C17D9DEF80020154213D1202CC2B29A
:100E2C00DEF80050DEF808000FD9B4F1004F0ED8F0
:100E3C00013CB4FA84F4C4F11F046400072A44EAA8
:100E4C00000406D96FF01500D8E70824F6E73E2415
:100E5C00F4E725F01F05154345F0100544F0010497
:100E6C00CCF80820501CCCF80C50CCF810400137B2
:100E7C00C2E700BF90ED00E0034B05225A60BFF3C0
:100E8C004F8FBFF36F8F704790ED00E0BFF35F8F14
:100E9C00014B00225A60704790ED00E0134908683E
:100EAC00082810B51ED8FFF7F1FF114C4968002235
:100EBC00904201F10C0105D10E4B1870FFF7DCFFCD
:100ECC00002010BDA26051F80C3C23F01F0313430B
:100EDC0043F01003E36051F8043C43F00103236139
:100EEC000132E5E74FF0FF30EBE700BF9C3D00001F
:100EFC0090ED00E02842002010B5034C012322782D
:100F0C00FFF774FF207010BD2842002008B5084A76
:100F1C0000231278FFF76AFF10F1160F03D0054B70
:100F2C000022072800DD08BD98601A610130F8E73F
:100F3C002842002090ED00E04FF02003EFF31182E7
:100F4C0083F31188BFF36F8F06490123C1F8403535
:100F5C004FF08041C1F8783582F31188BFF36F8F61
:100F6C000020704700E001404FF08043C0B2C3F84E
:100F7C001C05BFF34F8F0549054BCA6802F4E062AC
:100F8C001343CB60BFF34F8F00BFFDE700ED00E0D4
:100F9C000400FA0520B1034B800143F0010318470C
:100FAC00704700BF403D000008B5094B1A786AB97C
:100FBC000121197006200521FFF742FD0620FFF7DD
:100FCC002FFD044B4FF00042C3F80423002008BD52
:100FDC00294200200060004073B50368544D9B68A3
:100FEC0084681A79D5F8040301F01F0343EA42130D
:100FFC00C0B2002202F5A27655F82660C6F304268C
:10100C00B34275D120FA02F6F60771D5900000F1C3
:10101C00804000F5C040D0F8106526F00106C0F8FD
:10102C001065012000FA02F2C5F808239A0002F1BB
:10103C00A042D2F8000720F44030C2F80007A068A4
:10104C00C84010F0010051D0E068C84010F0010019
:10105C004CD06069C84010F0010056D0A269CA405B
:10106C00D2074AD42269E069CA4020FA01F102F0A1
:10107C00010201F001018A4214BF012102212C4D11
:10108C00002404F5A27255F8220010F0030036D1AA
:10109C00A20002F1804202F5C0421B02D2F8106598
:1010AC0003F4F85343EA014126F4473604F14003B4
:1010BC0026F440769B00C2F810659BB2D2F81065FE
:1010CC0003F1804303F5C0433143C2F81015186097
:1010DC001B680193019BD2F8103543F00103C2F851
:1010EC001035012303FA04F4C5F8044302B070BDB3
:1010FC000132082A7FF47EAF98E70321BFE7013461
:10110C00082CBED16FF01200F0E72369E469D2F825
:10111C000057634023FA01F101F00101C1F1030111
:10112C0025F4403343EA0141C2F80017DEE700BF63
:10113C00006000402DE9F34155480568002D68D04A
:10114C00544B99681B689E68D1E902231340D1E97E
:10115C000524224323EA02033268CC690969D2F8D8
:10116C0010254C40544023EA040401210027002B95
:10117C0039D1036003680093009B47480023012684
:10118C001F46D0F8042306FA03F1114213D09A003B
:10119C0002F1804202F5C242116861B103F5A271FD
:1011AC0050F82110176012680192C1F3042106FA5D
:1011BC0001F1019A0C430133082BE2D15CBB7DB1E8
:1011CC00344B98681B689F68D0E902321A40D0E90A
:1011DC0005310B4322EA030201250026002A38D1EF
:1011EC0002B0BDE8F0810B4210D096F804C007F0B5
:1011FC001F0242EA4C12920002F1A04223EA0103C0
:10120C00D2F800C72CF4403CC2F800C701374900A3
:10121C00ADE72C46B1E71F4FD7F80880D8F800107F
:10122C000029CCD00E68002E38BF0026D8F80C3020
:10123C008A682340134203D04B68224638469847AD
:10124C00002EBCD03368002B38BF002331461E461D
:10125C00ECE7154219D03B79C46906F01F0141EA4D
:10126C0043118900036901F1A0416340D1F800C723
:10127C00F34003F00103C3F103032CF4403444EABC
:10128C000343C1F8003722EA050201366D00A5E7D9
:10129C007C610040885000200060004010B504467E
:1012AC00002201210420FFF7CBFB2368064A986833
:1012BC00234600F1080100F049FD044B984214BF8D
:1012CC006FF00F00002010BDB11300000000AD0B3B
:1012DC002DE9F04F054687B00C46164698468068B7
:1012EC004FF0FF3101F030FB2B68DFF8B4909868B9
:1012FC0000F070FD0027B74201D300242AE094F8D7
:10130C0008B01BF0080A42D11422514601A802F081
:10131C003BF8626802920BF0010322688DF80430EE
:10132C001BF0020F8DF8058004921ED1721EBA427A
:10133C0002D9227D52071AD54BBB2022286801A95D
:10134C00806800F071FD484513D0144B984221D0B1
:10135C006FF004042B68986800F04CFDA86801F04D
:10136C00CDFA204607B0BDE8F08F5246E6E74022A2
:10137C00E4E7A86810304FF0FF3101F0E5FAAB68F4
:10138C001B6A4B4504F10C04E2D10137B3E76FF053
:10139C002204DFE76FF00F04DCE700BF0B00AD0B9E
:1013AC000000AD0B02788B68012A08D0022A08D005
:1013BC004AB9064A1A6203F1100001F09FBA044AB6
:1013CC00F8E7044AF6E7044AF4E700BF0000AD0B67
:1013DC000100AE0B0200AE0B0100AD0B10B50446C4
:1013EC00002201210320FFF72BFB2368084A986891
:1013FC00234600F1080100F06DFA064B984204D127
:10140C00A06802F067F9002010BD6FF00F00FBE739
:10141C00213700000000AD0B30B58568EA6B6B6CB2
:10142C0085B082B97BBB1C4600221146284602F0CF
:10143C0027F96C6205F1140001F060FA002385F8BD
:10144C004C3005B030BD114613B19A4228BF194635
:10145C00AC6BA9640094C4B1002A18BF0A4601926F
:10146C002A6C02929AB1002B18BF0B4603930368A7
:10147C0000229868694600F0D3FA064B9842E0D0F7
:10148C006FF00404D0E71946E2E72246E7E713467B
:10149C00ECE700BF0000AD0B2DE9F04780468068FB
:1014AC00894617461E4604304FF0FF3101F04CFAC6
:1014BC00D8F80840236899455CD0B9F8043041F657
:1014CC000901194040F0A680C3F34513082B40F0E6
:1014DC00A180D9F80020514B9A4240F29B80D8F859
:1014EC0000309D68D9F80830C4F800908BB11868AA
:1014FC0078B15A684368D3F800A00123D04722681A
:10150C009368B2F90420D243D3E90001D20F02F060
:10151C00AEF82A68B9F80450A90705F0040356D5AB
:10152C00002B14BF03230223022BC5F3001552D04A
:10153C00032B53D0012B01D145F00205D9F8001033
:10154C00374BC2F8545599424BD9364B99424BD92B
:10155C00354B99424BD9354B99424BD9344B994227
:10156C004BD9344B994234BF4FF080414FF000417E
:10157C00C2F82415012384F84C30002F40D03B686E
:10158C007A68A362E2621A685B68A263E363002E66
:10159C003BD033687268236362631A685B682264A9
:1015AC006364002262620121204602F069F8404621
:1015BC00FFF732FF4FF0FF3104F1140001F0C4F9D2
:1015CC00656A201D01F09AF92846BDE8F087003BBA
:1015DC0018BF0123A8E745F00405AFE745F0060561
:1015EC00ACE74FF00071C3E74FF08061C0E74FF0FC
:1015FC000061BDE74FF08051BAE74FF00051B7E7FB
:10160C00C4E90A77C4E90E77C1E7C4E90C66C4E9FA
:10161C001066C6E76FF01505D3E700BF47E8010079
:10162C008FD003001FA107003F420F007F841E00D4
:10163C00FF083D0000127A00044B1868421C04BFDE
:10164C00034B1878831F58425841704730010010E3
:10165C00E00F00F0074B1B78062B09D1064B1B68DB
:10166C00C3F30313033B032B02D8044AD05C70472B
:10167C0000207047E00F00F0E80F00F07E3E000005
:10168C0008B5FFF7D9FF28B17C4B7D4A1B68C3F323
:10169C0004231360FFF7DEFF10B17A4B7A4A1A600D
:1016AC00FFF7CAFF28B1794B794A1B68C3F3423361
:1016BC001360FFF7CFFF20B1764AD36823F0807315
:1016CC00D360FFF7B9FF40B14FF080430022C3F85D
:1016DC000C21C3F81021C3F83825FFF7BBFF10B15C
:1016EC006D4B03221A60FFF7B5FF40B16B4B05221F
:1016FC001A6001229A6700229A603F225A60684B56
:10170C001A68511C0BBF674B674B1A781B6802BFDA
:10171C0008331B68C3F30313062A4DD1033B032B79
:10172C0003D8624AD35C002B46D04FF08052604BFA
:10173C00D2F80414C3F82015D2F80814C3F82415F1
:10174C00D2F80C14C3F82815D2F81014C3F82C15C1
:10175C00D2F81414C3F83015D2F81814C3F8341591
:10176C00D2F81C14C3F84015D2F82014C3F8441551
:10177C00D2F82414C3F84815D2F82814C3F84C1521
:10178C00D2F82C14C3F85015D2F83014C3F85415F1
:10179C00D2F83414C3F86015D2F83814C3F86415B1
:1017AC00D2F83C14C3F86815D2F84014C3F86C1581
:1017BC00D2F84424C3F87025FFF73EFF28B13D4B07
:1017CC003D4A1B6803F04F031360FFF735FF48B128
:1017DC004FF08043D3F80024D20744BF6FF00102CE
:1017EC00C3F800242E4B1B68062B09D12E4B1B680B
:1017FC00033B022B81BF314A136843F480631360AF
:10180C004FF01023D3F80022002A03DBD3F8043264
:10181C00002B2FDA2A4B0122C3F80425D3F800241D
:10182C00002AFBD04FF010221521C2F80012D3F879
:10183C000024002AFBD04FF010231522C3F80422F9
:10184C001F4B1A46D3F800140029FBD00021C3F813
:10185C000415D2F80034002BFBD0BFF34F8F19497D
:10186C00194BCA6802F4E0621343CB60BFF34F8F8D
:10187C0000BFFDE7154B164A1A6008BD2403001083
:10188C004035014074C007400DF0ADBA4402001061
:10189C003C050040F0ED00E0A00500401056004073
:1018AC0030010010E00F00F0340100107A3E00000F
:1018BC0000C0004058020010E40E00403C170040ED
:1018CC0000E0014000ED00E00400FA051450002097
:1018DC000090D0032DE9F04704794E4D2C26664339
:1018EC00AF1997F81CC0BCF1000F40F09180AA51C1
:1018FC007B6091F800E00F7B4FF0A046012303FAC8
:10190C000EF3012F94BFC6F80C35C6F808350EF54A
:10191C00E0734FF0010C46F823C04B78FF2B1FBF30
:10192C000CFA03FCC6F80CC503F5E07C4FF0030879
:10193C0018BF46F82C808E7808BF4FF0FF33FF2E6F
:10194C001FBF91F80E9006F5E07C4FF0A04A4FEACD
:10195C00890918BF4AF82C904FF02C0C0CFB045C36
:10196C0018BFB0468CF81F60CE7808BF4FF0FF3818
:10197C00FF2E0DD04FF0A0494FF0010C0CFA06FCD5
:10198C00C9F808C506F5E07C4FF0030A49F82CA00D
:10199C004FF02C0C0CFB045C8CF81E600068C0F83B
:1019AC0008E5C0F80C358B68C0F81085C0F82435F4
:1019BC004B7B003B18BF0123022F23D0032F24D0D5
:1019CC00012F01D143F00203C0F854352C2303FB43
:1019DC000453497983F8201012B10423C0F804335E
:1019EC000123C0F800351AB140F30730FFF718F89F
:1019FC002C2303FB0454002363770748012323772C
:101A0C00BDE8F08743F00403DEE743F00603DBE7B1
:101A1C000248F5E7440000200000AD0B0500AD0BBB
:101A2C002DE9F7430779414D2C237B439646EA1861
:101A3C000E46517F8046002976D155F803C0BCF183
:101A4C00000F01D00123537796E80F002C2404FBE0
:101A5C00075404F10C0989E80F00A27F0023FF2A28
:101A6C0084F828301FBF012393404FF0A042C2F8E6
:101A7C000C352C23BEF1000F07D003FB07530022BB
:101A8C002B485A7703B0BDE8F083D8F80040042205
:101A9C00C4F8082303FB0753C4F808E1D4F8082161
:101AAC00C3F824E00092009A72688AB133681B78FC
:101ABC00C4F81C35012A0ED933685B78C4F81C3580
:101ACC00BCF1000F10D00423C4F804331948D9E733
:101ADC0093F82030ECE7F368012BF1D92C2303FBAE
:101AEC00075393F82030E9E72C2107FB0151664698
:101AFC00D4F80831002BFBD0C4F80861D4F80831B5
:101B0C0001932046019B01F04AFE0028F0D12C23C2
:101B1C0003FB0755AA7FFF2AD8D0012393404FF02F
:101B2C00A042C2F80835D1E70348ABE744000020D7
:101B3C000300AD0B0000AD0B0B00AD0B07B5104B4C
:101B4C001049114800221A601B680193019B01F097
:101B5C0026FE90B98A7F0D48FF2A1FBF01239340B0
:101B6C004FF0A042C2F8083500234B770B72D1E935
:101B7C00003103B05DF804EB184703B05DF804FBCB
:101B8C000831004044000020003000404C00002090
:101B9C0037B5334B01930D464FF48271044601F077
:101BAC0032FE4FF4927101F02EFE4FF48E7101F063
:101BBC002AFE4FF4847101F026FE00236B6385F836
:101BCC002F30AB6A012B17D12B6A5B0614D402237E
:101BDC00C4F800320123236295F82D20022A18BF85
:101BEC0023602B6893B140F28623AB60AB681D4831
:101BFC00C4F8043303B030BD0123E9E7294620467D
:101C0C0001F029FE28B1019B013B0193019B002BA4
:101C1C00F4DC95F82F305BB91248019B002BE9DC02
:101C2C000023C4F8003505230F48C4F80035E1E75C
:101C3C00D4F8C434C4F8C434002BEDD00B4A0A4891
:101C4C0013F0010F18BF104613F0020F02F101023E
:101C5C0018BF104613F0040F054B18BF1846DCE7ED
:101C6C00A08601000000AD0B0100AD0B0000AE0B17
:101C7C000200AE0B37B5304B01930D464FF4827119
:101C8C00044601F0C0FD4FF4927101F0BCFD4FF41D
:101C9C008E7101F0B8FD4FF4847101F0B4FD002396
:101CAC00C0F800326B6385F82F300123036295F87E
:101CBC002D209A4218BF8360294601F0ACFD2B6899
:101CCC0083B140F28623AB60AB681C48C4F8043384
:101CDC0003B030BD2946204601F0BDFD28B1019B63
:101CEC00013B0193019B002BF4DC95F82F305BB981
:101CFC001248019B002BEBDC0023C4F800350523B4
:101D0C000F48C4F80035E3E7D4F8C434C4F8C4343D
:101D1C00002BEDD00B4A0A4813F0010F18BF1046E8
:101D2C0013F0020F02F1010218BF104613F0040F5A
:101D3C00054B18BF1846DCE7A08601000000AD0B70
:101D4C000100AD0B0000AE0B0200AE0BF8B507792D
:101D5C001D4D4FF03C0C0CFB07FC05EB0C0494F8F0
:101D6C002E607EBB63604B7BA66084F82D6084F88C
:101D7C00306084F8316084F838300C6845F80C20F9
:101D8C004FF0A04604F5E07340F20C6C46F823C00B
:101D9C004B68006803F5E07E46F82EC0C0F8084595
:101DAC00C0F80C358B68C0F824351AB140F30730F5
:101DBC00FEF736FE3C2303FB07550448012385F848
:101DCC002E30F8BD0248FCE7700000200000AD0B7F
:101DDC000500AD0B026803790521C2F80015044A11
:101DEC003C2101FB0323022283F82E20704700BF05
:101DFC007000002003680A490279C3F80813D3F86D
:101E0C00001221F00301C3F800120021C3F80015E1
:101E1C00044B3C2101FB0233012283F82E20704736
:101E2C0086420400700000202DE9F047324E90F8F5
:101E3C000480D0F800903C2303FB08630C4693F815
:101E4C002D30012B174604D10B78012B06D12B48D2
:101E5C0011E0022B02D10B78012BF8D13C25284B39
:101E6C00C9F8083305FB086595F830302BB1AB6821
:101E7C002448C9F80433BDE8F08787F00403C3F3A2
:101E8C00800385F830302F62A646BEE80F0005F1BE
:101E9C000C0CACE80F00DEF80030CCF800306368B6
:101EAC00AB62E3686B626378C9F888352378C8EB5A
:101EBC00081A012B06EB8A0A19D0B3B9C7F34017DD
:101ECC003C2303FB0863514683F82C704846FFF70C
:101EDC00D1FE3C2303FB08F806EB080256F8083049
:101EEC00002BC8D182F83030C5E70127E8E751460E
:101EFC004846FFF74DFEECE7700000200500AD0BE7
:101F0C00864204000B00AD0BF0B5294C87B021467E
:101F1C004FF0402001F09FFCA446E0B994F82F70DC
:101F2C00266AEFB9237B9A1E012A19D8616AA26925
:101F3C00914215D1E2696262C6F340166269A262EF
:101F4C00032B84F82C6084F82D7021464FF0402030
:101F5C0003D1FFF78FFE07B0F0BDFFF719FEFAE7CC
:101F6C00144D0FCD01AC0FC42B682360E7B14FF0BB
:101F7C004022D2F8C434C2F8C43498070CD50123DB
:101F8C008DF8003000238CF830307307E3D4DCE993
:101F9C00003168469847DEE7590701D50223EFE781
:101FAC00DA07EFD50323EBE78DF80070EAE700BF03
:101FBC00700000207C000020094B70B553F82040C5
:101FCC000130002653F82050A54200D870BD23687C
:101FDC0020465B68984700B166600C34F4E700BF9C
:101FEC00283E0000104B70B5104C05461E469C4216
:101FFC0004D10E4CB44209D1002412E062681AB12B
:10200C0022681268AA420CD00C34F0E763680BB952
:10201C000C34EFE723682846196801F07EF9002894
:10202C00F6D1204670BD00BFB85000204C500020A7
:10203C0008B50B4D4FF02002EFF3118382F311889A
:10204C00BFF36F8F01F05CFD012102280446D8BF5D
:10205C00084601F065FD2C62FEF750FDEAE700BF73
:10206C00E84100200248034A0021121A01F08CB901
:10207C00000000202C42002008B50648064A0749FB
:10208C00121A01F056F9BDE80840054A0549064800
:10209C0001F04FB9704F0020E85000208C3E00003A
:1020AC00000000008C3E00000000002008B5094B29
:1020BC00012202201A70FFF77FFF0320FFF77CFF3D
:1020CC0000F0C0FCFEF77EF9034A137B23F00103FA
:1020DC00137308BD2A4200201801002080B5364B2E
:1020EC00A2B083F30888354C354E636943F4007312
:1020FC0063610025E02384F82230E5772576657648
:10210C00A576636A43F4E0236362FEF719FEFEF7DB
:10211C00EFFC4FF0FF33A362E36207AB6C2229465E
:10212C00184601F031F9274C0127A06028468DF89C
:10213C002970FFF741FF3846FFF73EFF00F056FBD2
:10214C00214B66624FF48062CDE90473CDE90255F0
:10215C001E4B1F49CDE90055304600F03BFC737B0C
:10216C0023F0040213F01B0F727304D1B36913B97B
:10217C00304600F043F9174B174D059301220F23FE
:10218C00CDE903320023CDE90133144900934FF418
:10219C00A072134B284600F01DFC6B7B0C490848C1
:1021AC00E56023F004036B730E4B4FF48062C4E9BB
:1021BC000633064BFEF77EFC704F002000ED00E06E
:1021CC0018010020E8410020823E0000B9200000E8
:1021DC0030420020873E0000AC000020304600203A
:1021EC003D2000000042002038B5074C074DAC42A2
:1021FC0001D3002038BD04F114032046C4E9053393
:10220C0000F092FD1C34F2E7B8500020D4500020AE
:10221C002DE9F04F1C1E85B007460D4692463ADD5F
:10222C0001F09CFC10EB04081C4B1D4EFB1A9B1080
:10223C005E43F6B207F1140B03AB02AA00955146AC
:10224C00384600F0B7FD029B039A1B0203F470633F
:10225C0043EA0233F2B213436B60C8B1C4B110F15C
:10226C000C0F15D14FF02003EFF3118083F311887D
:10227C00BFF36F8F2246594600F052FA631CDBD035
:10228C0001F06CFCA8EB0004002CD5DC6FF00A000C
:10229C0005B0BDE8F08F4FF00008C5E7B85000203E
:1022AC00B76DDBB60146014801F05EBBB8500020AB
:1022BC0010B5084C23685BB1FEF736FB034620686B
:1022CC00054A0344BDE810401361002101F028BC0D
:1022DC0010BD00BF20420020E8410020F8B50546A3
:1022EC000C464FF02003EFF3118683F31188BFF3F4
:1022FC006F8F0D4B00224FF4004740F2E730002166
:10230C001A61E7FB05014FF47A720023FDF7E0FE3A
:10231C00064B1860064B1C60FFF7CAFF86F311884A
:10232C00BFF36F8FF8BD00BFE841002020420020B2
:10233C001C4200204FF02003EFF3118183F311882E
:10234C00BFF36F8F044B9A68D37B013BD37381F33C
:10235C001188BFF36F8F7047E8410020094B03F1E0
:10236C002802824205D19B688B4202D14B7BDB0653
:10237C0006D1D1E9003213605A600023C1E9003361
:10238C00704700BFE841002038B50D4C024604F1FF
:10239C00280001F027FB054600B9E568A3684AB997
:1023AC005A7BD20606D1AA6922B9DA897F2A01D9C9
:1023BC00636238BD9D4201D0FFF77AFF6562F8E792
:1023CC00E841002010B54FF02003EFF3118483F3A4
:1023DC001188BFF36F8F084B9A68D37B0133D3738B
:1023EC000020FFF7D1FF84F31188BFF36F8FBDE896
:1023FC00104001F0EDBA00BFE8410020F8B54FF0F5
:10240C002003EFF3118583F31188BFF36F8F164A06
:10241C001146D46A51F8283F8B4208BF0023002B89
:10242C0038BF0023D3B190F90E7093F90E60B74208
:10243C0003DB9C4212D01B68F4E75A68C0E90032F7
:10244C0010605860437B43F0400343730020FFF758
:10245C009BFF85F31188BFF36F8FF8BDC0E90014A3
:10246C00D36A1860D062EDE7E8410020F8B5014668
:10247C004FF02003EFF3118483F31188BFF36F8FB8
:10248C00437B5A0602D51948FFF768FF184A1046D5
:10249C00D56A50F8283F834208BF0023002B38BF71
:1024AC000023EBB191F90E7093F90E60B74203DB88
:1024BC009D4215D01B68F4E75868C1E900300160F3
:1024CC0059604B7B906843F040034B73431A58425E
:1024DC005841FFF759FF84F31188BFF36F8FF8BD94
:1024EC00C1E90005D36A1960D162EAE71042002005
:1024FC00E841002038B5154A154B14680146986818
:10250C00A0421C4603D1BDE83840FFF7D1BE0025E0
:10251C001560104A1268B2B1C2897F2A13D80E4ACC
:10252C0090F90E50126895420DDB0C4A90420AD07D
:10253C00826942B91A698A4202DCFFF797FFE2E727
:10254C00521A1A6138BD00232361FBE718420020A0
:10255C00E8410020204200201C420020AC0000205A
:10256C0070B50446183001F0B5FA4FF02003EFF3C4
:10257C00118683F31188BFF36F8F637B5A0607D5DF
:10258C000F482146FFF7EAFE637B23F04003637399
:10259C000C4D637BA86843F010036373031B584214
:1025AC005841FFF7F1FE86F31188BFF36F8FAB68CC
:1025BC00A34203D1BDE8704001F00ABA70BD00BF60
:1025CC0010420020E8410020036D70B5044603B1B1
:1025DC00984704F1180001F07DFA4FF02003EFF357
:1025EC00118683F31188BFF36F8F204601F0D0F969
:1025FC00637B0546C8B1590607D512482146FFF73B
:10260C00ADFE637B23F0400363730F4B9868021B92
:10261C0050425041FFF7B8FE637B43F008036373ED
:10262C0086F31188BFF36F8F70BD9B07F4D5A0683C
:10263C002146FFF793FE637BA56023F002036373CF
:10264C00EAE700BF10420020E841002010B5014627
:10265C004FF02003EFF3118483F31188BFF36F8FD6
:10266C00437B5A0606D50948FFF778FE4B7B23F0CF
:10267C0040034B73064B9868431A58425841FFF776
:10268C0083FE84F31188BFF36F8F10BD10420020BE
:10269C00E841002070B504460D461646FFF7D6FFFC
:1026AC00637B43F002036373C5B12B68A5609D4245
:1026BC0008BF0023002B38BF00233BB394F90E1046
:1026CC0093F90E20914204DB6A689A421ED01B6873
:1026DC00F3E75A68C4E9003214605C60731C1CD0C8
:1026EC0026EAE6764FF4004540F2E73000214FF43D
:1026FC007A72C5FB06010023FDF7EAFC0749421C70
:10270C0004F11800BDE8704000F030BA6B686360EB
:10271C006B6825601C606C60E0E770BD053A0000DA
:10272C0070B50F4D0F4C0646A868FFF7B3FFAB68AA
:10273C0023603046FEF720F94FF02002EFF31183AF
:10274C0082F31188BFF36F8F2268A968914204BF8E
:10275C000022226083F31188BFF36F8F70BD00BF1E
:10276C00E84100201842002010B50C461146064ADC
:10277C009068064A10601A46FFF78CFF2046BDE8A9
:10278C001040FEF7F9B800BFE841002018420020C5
:10279C00F8B5451C01F0DEF92C184FF02003EFF3CF
:1027AC00118783F31188BFF36F8F0D4E0D4BB068FB
:1027BC001860FFF74BFFB0680B492A46183000F041
:1027CC00D5F9B268537B43F0100353733846FEF7C8
:1027DC00D3F801F0BFF9201A20EAE070F8BD00BF71
:1027EC00E841002018420020053A0000044B00216B
:1027FC0003F12802C3E90A220846FFF76FBD00BFA8
:10280C00E8410020F8B5244C244BA2689A4230D001
:10281C004FF02003EFF3118583F31188BFF36F8F13
:10282C00A16804F12800FFF799FDA36AA268E16A88
:10283C00834208BF0023002B38BF00232BB392F92F
:10284C000E7093F90E60B74203DB8B421DD01B68F0
:10285C00F4E75968C2E900310A605A60537B43F0CF
:10286C00400353730120FFF78FFD85F31188BFF3ED
:10287C006F8F4FF02003EFF3118083F31188BFF3B8
:10288C006F8FBDE8F840FEF777B8C2E90001E36A44
:10289C001A60E262E2E700BFE8410020AC000020D1
:1028AC0038B5431C044605D1104B986800F0AAF8C3
:1028BC00204638BD4FF4004540F2E7300021E5FBDF
:1028CC0004014FF47A720023FDF702FC044648B968
:1028DC00FFF798FF4FF47A7084FB0001C40B44EAB5
:1028EC004144E5E7FFF754FF0446F3E7E8410020D5
:1028FC00014B9868704700BFE841002070B5054651
:10290C004FF02003EFF3118683F31188BFF36F8F21
:10291C0001F0A2F8044670B1437BDB0603D1836956
:10292C000BB9FFF76BFD0023A36631460548BDE8E4
:10293C00704001F036B8D5E902329A4218BF013323
:10294C00AB60F2E72B42002002460B464FF0200012
:10295C00EFF3118180F31188BFF36F8F906838B15A
:10296C000138906081F31188BFF36F8F002070479E
:10297C0033B981F31188BFF36F8F6FF00F0070477D
:10298C000148FFF7F1BE00BF2B42002010B54FF0FD
:10299C002002EFF3118482F31188BFF36F8F427B17
:1029AC00510704D484F31188BFF36F8F10BD22F04C
:1029BC00040112F01B0F417303D183690BB9FFF7AC
:1029CC001DFD21460248BDE8104000F0EABF00BFE3
:1029DC002B42002030B587B004460E9D04950D9D0A
:1029EC0003950C9D02950B9D01950A9D0095FEF794
:1029FC003FF8034B9B6803B11B6E236607B030BDD9
:102A0C00E841002038B504464FF02003EFF3118560
:102A1C0083F31188BFF36F8FFFF7A2FD074B9B6801
:102A2C00A34205D129460648BDE8384000F0B9BF9D
:102A3C0085F31188BFF36F8F38BD00BFE8410020CC
:102A4C002B4200202DE9F04F284E294D87B0B0467F
:102A5C00B54205F1300410D3FFF76CFC244CDFF8C1
:102A6C0094A04FF4004940F2E7360027444521D3A7
:102A7C0007B0BDE8F04FFFF7A5BC54F8043C059334
:102A8C0054F8103C049354F8143C039354F8183C39
:102A9C00029354F81C3C019354F8203C009354E9E5
:102AAC000A2354E90C01FFF795FF54F8303CDD6420
:102ABC002546CDE7616A4B1C04D0256821B9284610
:102ACC00FFF764FF3034D1E7B346BC46E9FB01BCE9
:102ADC004FF47A72002358466146FDF7F9FA5146D5
:102AEC00421C05F1180000F041F8EBE7B85000204B
:102AFC00B8500020053A0000034B1B680BB9FDF7DA
:102B0C0013BF0020704700BF24420020036840B16F
:102B1C00074A5268904204D01BB19A6881680A44F3
:102B2C009A60426813605A600023C0E90033704712
:102B3C00185000200B4B10B51C689C4208BF002499
:102B4C00FFF7DAFF54B1A368181A20EAE070064BBD
:102B5C001B6913B19842A8BF184610BD6FF0004016
:102B6C00F5E700BF18500020E841002070B504467E
:102B7C001646C1604FF02003EFF3118583F31188E3
:102B8C00BFF36F8FFFF7B8FF184B1A68012EACBF5D
:102B9C00801901309A42A06001D05E6832B95A683F
:102BAC0062605A68236014605C600AE09068A168F7
:102BBC00884215DD411A91605168C4E900210C600E
:102BCC0054601A689A4206D0944204D1FFF7B2FFBF
:102BDC000021FDF753FE85F31188BFF36F8F70BD95
:102BEC00091A9642A160DAD01268D7E71850002073
:102BFC002DE9F0470646FFF77DFC4FF02003EFF37D
:102C0C00118483F31188BFF36F8F204DDFF8808020
:102C1C00DFF880A02E60C146DAF800002A68504523
:102C2C00D8E9006705D020B18368934213DD9B1A65
:102C3C008360B61847EBE277C9E9006700262E607F
:102C4C00FFF778FF3146FDF719FE84F31188BFF3C7
:102C5C006F8FBDE8F087F61847EBE377D31A2B603C
:102C6C0000238360C8E90067FFF750FF84F31188E5
:102C7C00BFF36F8FC36898474FF02003EFF31184B5
:102C8C0083F31188BFF36F8FC6E700BF2442002087
:102C9C00000000201850002010B54FF02003EFF377
:102CAC00118483F31188BFF36F8FFDF73DFE064B44
:102CBC00D3E90023121843F1000384F31188BFF306
:102CCC006F8F1046194610BD0000002010B44468E8
:102CDC00A468A44610BC604770B5C66890F90B0098
:102CEC000C240D464C43A84206EB0401B8BF3159E5
:102CFC00002A1046B8BF02F11F00401101EB800101
:102D0C00196002F01F0070BD4FF02003EFF311802B
:102D1C0083F31188BFF36F8F7047C30703D581F31B
:102D2C001188BFF36F8F70472DE9F04F4668078904
:102D3C00016890F80A80FF2306FB07FCC37261440C
:102D4C00324600234FF00C09984505DC0023194648
:102D5C008F4220DCBDE8F08FD0F80CA0BCFBF2F564
:102D6C0009FB03FE0AEB0E0404F1040B202DC4E94D
:102D7C0001BB05D8C372920822F003020133E3E7CA
:102D8C0015F11F0448BF05F13E0464114AF80E10FA
:102D9C0001EB8401EFE7C268056802F1040CEC1842
:102DAC0045F803C095686560956801312C60334423
:102DBC009460CDE72DE9F04F87B000AFC7E9013241
:102DCC00827A9300073303F4FF63ADEB030DEA46FD
:102DDC0053460546406843F804090024A24204F116
:102DEC00FF3909DD24B11868800820F00300586011
:102DFC0053F8040F884208D2B9F1FF3F07D13A6C5F
:102E0C00002313606FF00B002EE00134E6E72E7CFC
:102E1C0016F0010602D0FFF777FF0646EA680C238E
:102E2C0003FB0923C8461A4652F8044F94421FD19B
:102E3C0008F1FF38B8F1FF3FA3F10C03F3D10024E4
:102E4C00287C3146FFF769FF3B6C1C60002CD9D005
:102E5C00BB68C3F800902B68E41A5AF8293094FB2D
:102E6C00F3F47B6800201C601C37BD46BDE8F08F76
:102E7C00D4E9003213605A600023C4E90033296896
:102E8C005AF8280007F11403621A414692FBF0F23B
:102E9C002846FFF721FFD7F814C00121DCF80020E9
:102EAC00396001FA00F00243CCF800209B46C8457B
:102EBC00C6DA2A685AF8283008F101084146A21AE5
:102ECC00284692FBF3F25B469200FFF705FF7A6906
:102EDC003B68E96803FA00F01368034313605AF87F
:102EEC0028000C2303FB0811032201F1040E231804
:102EFC00FA608A685A608A68C3F800E01360FA685E
:102F0C008B60013A0344FA60F3D1287C3146FFF719
:102F1C0004FF2B7CDB0703D5FFF7F6FE0646C6E75E
:102F2C00FE68C4E7044608B5084611461A46A04791
:102F3C00FFF7DEFCFDF718FF70478368C9B20C225F
:102F4C0002FB01314B7A23B9087AB0FA80F04009C0
:102F5C0070470220704738B584680C2303FB01448A
:102F6C000123054663724FF02003EFF3118183F3C5
:102F7C001188BFF36F8F23682BB160681A682260C9
:102F8C00834208BF626081F31188BFF36F8F03B96E
:102F9C0038BDD3E9012128469047E4E70368D0F80F
:102FAC0008C02DE9F0419F680546CEB24AB10C230A
:102FBC0073435CF803309A425CD013B11B68002B4E
:102FCC00F9D14FF02003EFF3118083F31188BFF395
:102FDC006F8F0C2171430CEB01031C7A0134E4B2AA
:102FEC001C7280F31188BFF36F8F32B34FF08040A7
:102FFC004FF0030EC0F808E3587AA0B94FF0200E3A
:10300C00EFF311888EF31188BFF36F8F1060D3F834
:10301C0004E0BEF1000F20D15A604CF8012088F377
:10302C001188BFF36F8F4FF080430321C3F8041353
:10303C0018B1D2E9013128469847012C0BD10C2349
:10304C007343FB586BB90C2101FB06760122B37A52
:10305C0003F180431A6000200EE0CEF800205A6085
:10306C00DDE7284698470028EDD131462846FFF782
:10307C0072FFF0E76FF00F00BDE8F0810022FFF760
:10308C008DBF002210B5012104461046FDF7D8FC77
:10309C000020FDF7C5FC4FF080430122C3F8182532
:1030AC000322C3F80423A3680020C3E90000A3682B
:1030BC00C3E9030010BDF7B5026886689768CCB207
:1030CC004FF02003EFF3118583F31188BFF36F8F5B
:1030DC000C226243B1180B7A3BB3013BDBB20B728F
:1030EC0033BBB3503A444B605368D3B90C2303FB46
:1030FC0004730121DA7A1B8902F1804203F18043C7
:10310C00116000221A601B680193019B0C2101FBCA
:10311C0004640020607285F31188BFF36F8F03B0D5
:10312C00F0BD98470028E1D1F0E76FF04400F2E7DA
:10313C000020F0E76FF022007047002070476FF01E
:10314C0022007047102914BF6FF022000020704736
:10315C00002914BF6FF0220000207047FFF7A0BBBE
:10316C0038B50C46856810220021204600F00CF979
:10317C00EB8C2380AB8C638010236360A38138BD00
:10318C0010B41346426854680A46A446002110BC89
:10319C0060476FF0220070472DE9F043044687B07A
:1031AC00984625460DF107038DF807100293012769
:1031BC0002AB164612210022006A0397CDE90437B0
:1031CC00FFF7DEFF55F8040B436804AAD3F8009010
:1031DC0029460023C8476EB1206A3A461221CDE930
:1031EC000268FFF7CDFF2068436804AA1C682946D3
:1031FC000023A04707B0BDE8F08308B50023806822
:10320C001A462821FFF7C8FF002008BD08B5002387
:10321C0080681A462921FFF7BFFF002008BD2DE961
:10322C00F04F8668B3F806809888748D1D46338DF0
:10323C0019448BB2013B85B00344224449BA5BBAB2
:10324C0094B2ADF80810ADF80A3002AA04232A2172
:10325C0030460E9FFFF7A0FF63BA013C4444ADF823
:10326C00083064BA042302AA2B213046ADF80A4078
:10327C00FFF792FFAB882A89EC889A4284BFA0465C
:10328C00012404FB03F34FEA43033A464FF02C01AD
:10329C00304698BF4FF00108FFF77EFF01230393E0
:1032AC002B89CDF808D007EB43074FF0000906F146
:1032BC00040A09F101091FFA89F3984503D8002083
:1032CC0005B0BDE8F08FAB883068009763435B00B6
:1032DC000193436802AAD3F800B051460023D847A3
:1032EC002B8907EB4307E4E770477047FDF70CBCED
:1032FC0000F029BB0146006800F025BB08B5FDF7BE
:10330C000DFCBDE80840FDF729BB07B5002101A85D
:10331C00FDF7FCFD03B05DF804FB431E013913F807
:10332C00012F11F8010F824201D1002AF7D1101A96
:10333C007047F0B581EA0004A50703460BD0013BAA
:10334C000A4491421BD1F0BD002AFCD011F8014B6C
:10335C0003F8014B013A9C07F6D122F003041D1F20
:10336C0096080F19B94205D16FF0030505FB06222B
:10337C002344E4E751F804CB45F804CFF2E711F805
:10338C00014B03F8014FDCE770B5C9B203469C074B
:10339C0011D141EA012422F0030644EA04451E44FB
:1033AC009408B3420DD16FF0030505FB04221A44B7
:1033BC00934209D170BD002AFCD003F8011B013ADD
:1033CC00E5E743F8045BECE703F8011BF0E7FEF7D5
:1033DC0057B910B504688068A468C06924680129CD
:1033EC0004D14340C4F80435002010BD003B20FA42
:1033FC0002F04FF0010118BF012300F001009140D1
:10340C00834214BFC4F80815C4F80C15ECE7F0B5EA
:10341C000546006880680668A868D6F81475C06907
:10342C00D6F81045D6F80465604074403C406040C6
:10343C0001291CBFD04000F0010018600020F0BD35
:10344C008368186830B558B10024814213D10868DC
:10345C005CB95C681860A14200D15860002008601B
:10346C0072B9002030BD2846EFE7206058688142D1
:10347C0008BF5C60F2E705680446002DF3D13AB151
:10348C001A680A60586819600028EAD15960E9E79F
:10349C006FF01500E6E72DE9F74F03F47044B4F52F
:1034AC00A04F866880461F4642D00FDCB4F5405FC3
:1034BC0040D006DCA4B1B4F5805F3DD06FF01500B0
:1034CC0033E0B4F5804FF9D1022409E0B4F5404F54
:1034DC0034D0B4F5504F33D0B4F5E04FEED10524D1
:1034EC0007F44070B0F5807F2CD0A0F500756842D1
:1034FC00684107F0010C4FEA4C03012943EA0C0325
:10350C0043EA042418BFD5B207F0020312BFA94640
:10351C004FF01F09002544EA80044FF0A04A4FF0F9
:10352C00010B0193A9450FD2002003B0BDE8F08F29
:10353C000324D5E70424D3E70124D1E70624CFE7FD
:10354C000724CDE70320D4E7D8F8003001999B6815
:10355C001A7905F01F0343EA421303F5E0734AF8A6
:10356C0023400BFA05F3B26819B31A43B2607269BF
:10357C00B8064CBF1A439A437261B26979064CBFC4
:10358C001A439A43B261326978074CBF1A439A4383
:10359C003261F26939064CBF134322EA0303F3612B
:1035AC0029464046FDF718FD0028BED10135EDB285
:1035BC00B8E722EA0302D9E701292DE9F04118BF47
:1035CC00D4B28768054612BF26461F2600244FF04A
:1035DC000108B44202D90020BDE8F081FB6808FA6A
:1035EC0004F223EA0203FB6021462846FDF7F4FCB3
:1035FC000028F1D10134E4B2EBE701292DE9F041C7
:10360C0018BFD4B28768054612BF26461F26002471
:10361C004FF00108B44202D90020BDE8F081FB68EC
:10362C0008FA04F21343FB6021462846FDF7D4FC4C
:10363C000028F2D10134E4B2ECE70368CA079B68B6
:10364C0005D4C1F34202012A04D0022A0BD06FF038
:10365C00150070471B684FF0CC72C3F824258368A3
:10366C000020596270471B684FF0CD62F5E710B42B
:10367C001346426854680A46A446002110BC6047B1
:10368C0038B50568044625B3AB6813B3186800B3A6
:10369C0061B1B5F904205968D20FFFF7E8FF236830
:1036AC009B689868BDE8384000F003BA12B9AA8844
:1036BC0092040ED4986800F0FCF922689368B2F971
:1036CC000420D243D3E90001D20FBDE83840FFF704
:1036DC00CEBF38BD10B5012200210446FFF7D0FF44
:1036EC00E36823B9201DBDE81040FFF707B910BDF2
:1036FC00806803688B4210B506D190F84C4034B901
:10370C00FFF7E8FF204610BD6FF01500FBE76FF0E8
:10371C000F00F8E710B40378002B39D18B68DC6B01
:10372C009A6C84B1A2420ED8A41ADC6324BBDC6A66
:10373C00013CDC62F4B1986A00F108049C62846874
:10374C00C0689C63D8635C6C84B1A2420ED8A41A86
:10375C005C64BCB95A6B013A5A63BAB11A6B02F188
:10376C00080018639068D26818645A6410BC084644
:10377C00FDF752BE9C63E6E7986B0028E3D010443B
:10378C009863E0E7186C0028F0D002441A64EDE767
:10379C0010BC704708B50020FDF7E6FB004737B5B5
:1037AC00D0F818358A69DBB28DF807304B6A934232
:1037BC003EBF4A699DF80740D4544A6A91F82840A4
:1037CC00531C4B6202323CB10C69A2428C6938BF6B
:1037DC000A61944288BF8A610D69954205D9CB680C
:1037EC009B5CC0F81C3501200BE08C69944202D91B
:1037FC0091F82030F5E7AB42F5D3A3422CBF002063
:10380C00012003B030BD0023435082B043580193D4
:10381C00019B02B070474A6B0346886A824207D20A
:10382C00486A805CC3F81C0501324A63012070476A
:10383C0091F82C0018B10122DA61002070470A6A55
:10384C0012F0400F4FF0010203D0DA6181F82D2005
:10385C0070475A61EAE791F82F20F8B504460D46F7
:10386C00002A60D1D0F824314E6B8F6AB3B14FF47B
:10387C009271FFF7C8FF0123636185F82F30BE42B8
:10388C004FD1D4F80431002B4BD04FF48271204629
:10389C00FFF7B9FF002285F82D2013E0D0F81C317A
:1038AC0093B14FF48E71FFF7AEFFD0F824311BB1FA
:1038BC004FF492712046DCE72946FFF7ACFF024635
:1038CC000028DCD11046F8BDD0F80831002BD6D03A
:1038DC004FF48471FFF797FFD0F82431002BE7D118
:1038EC006B6BA96A8B42CAD2696AD0F81805C854A6
:1038FC006B6BA96A0133481E83426B6308D1286A3B
:10390C0040061DD40223C4F8003201232362B6E71B
:10391C008B42FAD12B6A5B06B1D5022385F82D3088
:10392C00D0E70122CEE74FF49271FFF76CFF4FF412
:10393C008E71FFF768FF4FF48471FFF764FFA0E707
:10394C008B42E2D1E9E770B505460E46FEF7D0FF93
:10395C00314604462846FFF71DFF2046BDE870405F
:10396C00FDF702BAFFF7C1BC13B504240A1904D23F
:10397C0000236946FEF74CFC10B1002002B010BDCC
:10398C000098224601A9FFF7D4FC00980430F5E713
:10399C00437BDB0603BF8069B0FA80F0400900204E
:1039AC00704721B9EFF3058008B9FCF7E5BF81F347
:1039BC001188BFF36F8F7047034620B9EFF3058270
:1039CC000AB9FCF7D9BF83F31188BFF36F8F704727
:1039DC004FF02003EFF3118083F31188BFF36F8F47
:1039EC00FFF7EABF03460068834203D0002838BFC4
:1039FC00002070470020704738B550F8103C044642
:103A0C00A0F11801C3B14FF02003EFF3118583F33C
:103A1C001188BFF36F8F50F8100CFEF79FFC14F851
:103A2C000B3C23F0020304F80B3C85F31188BFF325
:103A3C006F8F002344F8103C14F80B3C23F0140354
:103A4C0004F80B3C0846FFF7A3FF20B1BDE8384053
:103A5C000846FEF7D3BC38BD38B54FF02003EFF362
:103A6C00118283F31188BFF36F8FFFF7BBFF0446FE
:103A7C0082F31188BFF36F8FC8B14FF02003EFF3BF
:103A8C00118583F31188BFF36F8F01468068FEF7B1
:103A9C0065FC637B23F00203637385F31188BFF32A
:103AAC006F8F0023A36004F1180000F013F8204678
:103ABC0038BDFDF76FBA10B5029C047383730424F0
:103ACC000023C0E90633C0E91333C0E9161244736E
:103ADC00C37310BD10B54FF02002EFF3118482F3C5
:103AEC001188BFF36F8F03683BB1FFF70FF800200D
:103AFC0084F31188BFF36F8F10BD6FF01500F7E7DB
:103B0C0010B54FF02003EFF3118483F31188BFF34A
:103B1C006F8FFFF70FF884F31188BFF36F8F10BD11
:103B2C0070B504460D464FF02003EFF3118683F376
:103B3C001188BFF36F8FFEF7FDFF012805DDA04252
:103B4C0003DD29462046FCF799FE86F31188BFF366
:103B5C006F8F70BD08B5FFF79FF808BD10B5FFF764
:103B6C009BF84FF47A74A0FB042304FB0133D00BB5
:0A3B7C0040EA4340D90B10BD70472A
:023B8600FFFF3F
:083B880084C5FF7F010000006D
:103B9000000000003105000000000000F9320000C4
:103BA00000000000F9320000491B0000A9370000A6
:103BB000151F0000A937000000000000F9320000C6
:103BC000000000004111000000000000F932000078
:103BD00000000000F932000000000000F93200008F
:103BE00000000000F932000000000000F93200007F
:103BF00000000000F932000000000000F93200006F
:103C000000000000F932000000000000F93200005E
:103C100000000000F932000000000000C5070000AD
:103C200000000000F932000000000000F93200003E
:103C300000000000F932000000000000F93200002E
:103C400000000000F932000000000000F93200001E
:103C500000000000F932000000000000F93200000E
:103C600000000000F932000000000000F9320000FE
:103C700000000000F932000000000000F9320000EE
:103C800000000000F932000000000000F9320000DE
:103C900000000000F932000000000000F9320000CE
:103CA00000000000F932000000000000F9320000BE
:103CB00000000000F932000000000000F9320000AE
:083CC00000000000F9320000D1
:103CC8004F3E00008F3000005C3D0000473E000082
:103CD80099050000000000005B3E00000508000098
:103CE800000000006C3E0000A90E0000000000006B
:103CF8006C3E0000450F000000000000403E000040
:103D0800B50F0000D83D0000743E0000A912000065
:103D1800F03D0000553E0000E9130000083E000099
:0C3D28006C3E0000F521000000000000CF
:0C3D3400FFFFFFFFFFFFFFFFFFFFFFFF8F
:103D40000338FDD87047000089300000C330000000
:103D5000A92F000000000000472F00000000000015
:103D6000000000000001000400000000000000004E
:103D70000401080C07320000193200002B32000049
:103D800041310000473100004B3100009F310000FD
:103D90006D310000513100005D3100000200000073
:103DA000A43D000000000000653E00002400020762
:103DB000000000206D3E00001E000B11A334000027
:103DC000DF3300001B3400004D34000007360000D4
:103DD000C535000000000000000000500000000099
:103DE00047360000DD120000000000000000000067
:103DF0000040004000000000070000000600000036
:103E000000009801000000000030004000000000A9
:103E1000020304FF00FF000000000040000000005B
:103E2000A5140000FD3600004C5000207C500020FE
:103E300088500020AC500020B8500020F5FFFFFF54
:103E40004750494F5F3000444953504C415900435B
:103E50004C4F434B005350495F30007379735F639D
:103E60006C6F636B00464C4153485F3000535241C6
:103E70004D5F30004932435F310000000101010015
:0C3E800000006D61696E0069646C6500F3
:103E8C000000000000000000000000000000000026
:103E9C000000000000000000000000000000000016
:103EAC0000000000F000F000000000009C4F00201B
:103EBC009C4F00200100000001000000AC4F0020CE
:103ECC00AC4F0020000000000100000000000000CA
:103EDC000000000000000000C84F0020C84F002068
:103EEC000000000001000000D84F0020D84F002037
:103EFC0000000000010000000000000000000000B5
:103F0C0000000000000000000000000000000000A5
:103F1C000000000000000000000000000000000095
:103F2C00000000000090D003185000201850002012
:103F3C005A690201D0040C11132C3F44512F1F1F3E
:103F4C0020230C0C003333D0040D11132B3F544C95
:0C3F5C00180D0B1F23A4A100F0CD0814C9
:103F6800F83C00000000000000000000283D0000B0
:103F78000000000000000000EC3C00000000000011
:103F880000000000C83C0000483D00000800002078
:103F9800E03C00000000000000000000043D0000BC
:103FA800BC3D000024000020103D0000E03D000062
:103FB8009C4F00201C3D0000203E0000C44F002004
:0C3FC800D43C0000743D0000704F00204D
:103FD400840100200040000001000500AC410020E5
:0C3FE400010000000000000000000000D0
:103FF000D4500020D4500020000000000000000039
:044000000F000000AD
:0400000300000B9D51
:00000001FF
